:020000040000FA
:1000000010080020D5000000EF000000451100009E
:1000100000000000000000000000000000000000E0
:10002000000000000000000000000000F3000000DD
:100030000000000000000000F5000000F7000000D4
:10004000551100005F1100006911000073110000DC
:10005000F9000000F90000007D1100008711000088
:1000600091110000F90000009B110000F900000050
:10007000A5110000F9000000AF110000B911000047
:10008000C3110000CD110000D7110000E1110000E4
:10009000EB110000F5110000FF1100000912000033
:1000A00013120000F90000001D12000027120000CA
:1000B00031120000F90000003B1200004512000060
:1000C0000348854600F05EF800480047952500008B
:1000D0001008002009480A4A002100A1814200D9E5
:1000E0000244084802600848804708480047FEE785
:1000F000FEE7FEE7FEE7FEE7FEE700000000002067
:100100000000000008ED00E0B1210000C100000087
:1001100030B50B46014600202022012409E00D469F
:10012000D5409D4205D31D469540491B2546954027
:1001300040191546521E002DF1DC30BD03460B431D
:100140009B0703D009E008C9121F08C0042AFAD28D
:1001500003E00B780370401C491C521EF9D2704713
:10016000D2B201E00270401C491EFBD2704700224F
:10017000F6E710B513460A4604461946FFF7F0FFA6
:10018000204610BD064C0125064E05E0E36807CC6D
:100190002B430C3C98471034B442F7D3FFF794FF3D
:1001A000F82600001827000000B5012000F06AF8CA
:1001B000012810D100F014F807480078401C0649C7
:1001C000087008460078052805DB012003490870FF
:1001D00000200149087000BD3D0000203C000020C7
:1001E00001460020002904D0012909D0022917D195
:1001F0000DE00D4A5269520852000B4B5A6111E052
:10020000094A526B52085200074B5A630AE0064AE9
:100210004032526952085200034B40335A6101E0A8
:10022000012000BF00BF7047000C004001460020C5
:10023000002904D001290BD002291DD111E0104A58
:10024000D26801239B029A43D2180D4BDA6015E065
:100250000B4AD26A01239B029A43D218084BDA62F6
:100260000CE0074A4032D26801239B029A43D2181D
:10027000034B4033DA6001E0012000BF00BF70474C
:10028000000C004001460020002904D0012907D0BD
:10029000022910D109E00A4A1269D007C00F0CE008
:1002A000074A126BD007C00F07E0054A40321269B7
:1002B000D007C00F01E0002000BF00BF7047000062
:1002C000000C004030B502460020002A04D0012A6C
:1002D0004AD0022A7ED191E0724BDB68012464028D
:1002E000A3430C78640201256D022C4023436D4C1E
:1002F000E3602346DB68A415A3434C7824026D1009
:100300002C402343674CE3602346DB687024A343FF
:100310008C78240170252C402343624CE3602346F3
:10032000DB680824A343CC78E40008252C40234351
:100330005C4CE3602346DB680424A3430C79A400EF
:1003400004252C402343574CE3602346DB680224FA
:10035000A3434C79640002252C402343514CE360B5
:10036000514C8B6823609AE04E4BDB6A0124640297
:10037000A3430C78640201256D022C402343494CB1
:10038000E3622346DB6AA415A3434C7824026D1074
:100390002C402343434CE3622346DB6A7024A3438F
:1003A0008C78240170252C4023433E4CE362234685
:1003B000DB6A0824A343CC78E40008252C402343BF
:1003C000384CE3622346DB6A0424A3430C79A4007F
:1003D000042500E061E02C402343324CE3622346D5
:1003E000DB6A0224A3434C79640002252C4023439A
:1003F0002C4CE3622D4CCB68236050E0294B4033FA
:10040000DB6801246402A3430C78640201256D02B9
:100410002C402343234C4034E3602346DB68A4157F
:10042000A3434C7824026D102C4023431D4C4034D0
:10043000E3602346DB687024A3438C782401702595
:100440002C402343174C4034E3602346DB680824E8
:10045000A343CC78E40008252C402343114C4034BE
:10046000E3602346DB680424A3430C79A40004253D
:100470002C4023430B4C4034E3602346DB680224CA
:10048000A3434C79640002252C402343054C40349F
:10049000E360074C0B69236001E0012000BF00BF4F
:1004A00030BD0000000C004030000020340000206F
:1004B0003800002008B50321684602F03CF800210E
:1004C00068460170032000F01BFA01216846417064
:1004D000817000F005F908BD0248034988600348AF
:1004E000886070475A5A000000200040A5A500000F
:1004F000034800680F21C90288430149086070471A
:100500000020004070B505460C460026FFF7E4FFCA
:10051000002C01D0012000E000200446002D5FD017
:10052000012D34D0022D27D0032D63D13548C0686A
:100530001021884321011022114008433149C8602D
:100540000846C068202188436101202211400843E9
:100550002C49C8602C488069000900010F302A49E5
:1005600088610846006808218843E100082211409C
:1005700008432549086041E0234800680421884376
:10058000A1000422114008431F49086036E01D48BD
:100590004038C068022188436100022211400843AC
:1005A00018494039C8600846C06804218843A10042
:1005B00004221140084313494039C86012480069B9
:1005C000000900010F301049086108460068022147
:1005D000884361000222114008430B4908600DE086
:1005E0000948006840084000E107C90F0843064970
:1005F000086003E0FFF77CFF042600BF00BF304621
:1006000070BD0000400D0240002000400146002067
:10061000002906D0012909D002290CD0032914D1C0
:100620000EE00B4AD2681205D00F0FE0084A12699B
:100630005206D00F0AE0064A5269D204D00F05E0F4
:10064000034A92695206D00F00E000BF00BF704716
:10065000002000400CB500201CA2126801921C4A28
:10066000126800921B4A12689206910F002906D068
:1006700001291BD002290DD003291CD118E0154AED
:10068000D26803235B021A40520A01AB985C124AFB
:10069000504312E00F4A526901235B021A40520A8A
:1006A00052006B46985A6422504306E00B4804E01F
:1006B0000120C00301E0002000BF00BF054A12680E
:1006C000D205530F0246DA4010460CBD040810183C
:1006D000DC2600000020004040420F000048E801F6
:1006E00010B50446207800F041FA607800F08CF8EC
:1006F000A07800F0BFF8002010BD000070B50546DE
:100700000C460026FFF7E8FE002C01D0012000E097
:10071000002004462B0001F0F1FE0906131E2934C7
:100720003F4A55606D00374800680121C90388437E
:10073000E1030122D20311400843324908605DE021
:10074000304840680221884361000222114008437A
:100750002C49486052E02B48406804218843A1009E
:100760000422114008432749486047E02548406873
:1007700008218843E10008221140084321494860CC
:100780003CE020484068102188432101102211409C
:1007900008431C49486031E01A48406820218843DA
:1007A00061012022114008431649486026E015489F
:1007B000406840218843A10140221140084311496B
:1007C00048601BE00F48406880218843E101802297
:1007D000114008430B49486010E00A484068FF2177
:1007E000013188432102FF220132114008430549AB
:1007F000486003E0FFF77CFE042600BF00BF3046E0
:1008000070BD00000020004010B50446102C14D02C
:1008100008DC012C0DD0022C0CD0042C0BD0082CA1
:1008200021D109E0202C09D0402C08D0802C1AD1ED
:1008300006E000BF00BF00BF00BF00BF00BF00BF99
:10084000FFF74AFE204600F0CBFFC4B2084800681C
:10085000FF21C1318843A101FF22C1321140084369
:100860000349086001E0042010BD00BF0020FBE741
:100870000020004010B50446012C06D0022C05D003
:10088000042C04D0082C16D102E000BF00BF00BF2A
:10089000FFF722FE204600F0A3FFC4B2084800681C
:1008A0000321490288436102032252021140084396
:1008B0000349086001E0042010BD00BF0020FBE7F1
:1008C0000020004010B502460020002901D001237D
:1008D00000E000231946002907D0084B1B6A0124B9
:1008E00094402343054C236206E0044B1B6A012419
:1008F0009440A343014C236210BD0000002000403F
:1009000010B5014600208A1E130001F0F7FD050412
:10091000101C28344000204B1B895A05520D1F4BD8
:10092000DB68DB0ADB0213431C4CE36031E01A4B4B
:10093000DB885A05520D194BDB68DB0ADB021343D7
:10094000164CE36025E0144B9B885A05520D134B5F
:10095000DB68DB0ADB021343104CE36019E00E4B4B
:100960005B885A05520D0D4BDB68DB0ADB02134333
:100970000A4CE3600DE0084B1B885A05520D074BEB
:10098000DB68DB0ADB021343044CE36001E0042074
:1009900000BF00BF10BD0000000C10000020004090
:1009A00010B501460020002902D0012918D10BE022
:1009B0000D4B5B889A05920D0C4B5B699B0A9B0261
:1009C00013430A4C63610DE0074B1B889A05920D97
:1009D000064B5B699B0A9B021343044C636101E075
:1009E000042000BF00BF10BD200C100000200040FC
:1009F00001460020002906D001290CD0022915D07B
:100A0000032927D11DE0154A526903239B029A430B
:100A1000124B5A6120E0114A526903239B029A4308
:100A200001239B02D2180D4B5A6115E00B4A526903
:100A300003239B029A430123DB02D218074B5A611E
:100A40000AE0064A526903239B029A43D218034BD9
:100A50005A6101E0042000BF00BF70470020004041
:100A600070B504460025FFF737FD002C06D0012C99
:100A700006D0022C03D0032C0ED102E000BF00BF31
:100A800000BF09480068302188432101302211400D
:100A900008430549086003E0FFF72AFD042500BF6D
:100AA00000BF284670BD0000002000400146002025
:100AB000032906D004290BD0052911D006291FD1FE
:100AC00016E0114A126930239A430F4B1A6119E05C
:100AD0000D4A126930239A4310320B4B1A6111E010
:100AE000094A126930239A432032074B1A6109E000
:100AF000054A126930239A433032034B1A6101E0F0
:100B0000042000BF00BF70470020004001460020C5
:100B1000032906D004290BD0052911D006291FD19D
:100B200016E0114A926930239A430F4B9A6119E0FB
:100B30000D4A926930239A4310320B4B9A6111E0AF
:100B4000094A926930239A432032074B9A6109E09F
:100B5000054A926930239A433032034B9A6101E08F
:100B6000042000BF00BF70470020004070B505465C
:100B70002C46254800688006860F002C06D0012CE4
:100B800005D0022C07D0032C0DD108E00DE0062083
:100B9000FFF78CFF09E00320FFF72AFF05E005209F
:100BA000FFF7B4FF01E0042070BD00BF17481849EB
:100BB000C8621848C862012C01D0012E07D100BFBD
:100BC0001348006A04218843001D1149086201216D
:100BD0002046FFF797FC00BF2046FFF717FD0028CF
:100BE000FAD02046FFF73CFF00213046FFF78AFC91
:100BF000012C05D00648006A042188430449086294
:100C000001F0CEFA0020CFE7002000405A5A000041
:100C100000000240A5A5000010B50446002C01D13B
:100C2000042010BD2B48006A0121090688434018A2
:100C3000284908622078002806D001281AD0022806
:100C40000DD0032827D11EE02248406B03218906DE
:100C500088430121C90640181E4948631DE01D480C
:100C6000406B0321890688430121890640181949F0
:100C7000486312E01748406B0321890688434018F7
:100C80001449486309E01348406B032189068843EF
:100C90001049486301E00420C3E700BF0D48406BE2
:100CA0000121490688436178490601225206114014
:100CB0000843084948636068401E074948610321AA
:100CC000081F00F0A9FE0020034988610120086187
:100CD0000020A6E70020004000E000E010B5044638
:100CE00001480068804710BD60000020F8B5054647
:100CF0000F4616466CB22046C206D20E0121914024
:100D00000D4A116000BF394600F0C2FE012E08D125
:100D100000BFE106C90E012088400849086000BFF5
:100D200009E000BFE106C90E012088400349803177
:100D3000086000BF00BFF8BD80E200E000E100E015
:100D40007047000010B502469001064BC0180069BC
:100D500001238B4098439301024C1B19186100201A
:100D600010BD0000000E024070B504460D46164648
:100D7000012332462946204601F046FB002070BD83
:100D800002469001034BC0180068C840C007C00F5E
:100D900070470000000E024010B50446002C06D03B
:100DA000012C0AD0022C43D0032C62D146E0002053
:100DB000A101314A891808615CE004210120FFF794
:100DC000DFFF002833D004210120FFF7BBFF2B48B1
:100DD0004079032828D1012029490870274800F0CC
:100DE000EBFF2849087008460078262801DD2620F8
:100DF000087024480078002819DD2348007826224E
:100E00005043224A81181F4802781C4801F012F909
:100E10001D480078401C1C490870084600781E28B0
:100E200005DB0020087002E001201949087021E06C
:100E30000020A101104A891808611BE0032108461F
:100E4000FFF79EFF002806D003210846FFF77AFF30
:100E500001201049087002210320FFF791FF0028AC
:100E600006D002210320FFF76DFF01200A49087018
:100E700000E000BF00BF10BD000E0240DC050020F6
:100E80004E000020490000204C0000206801002096
:100E90004F000020500000205100002070B5044693
:100EA0000D4616462948006A012109078843401863
:100EB0002649086200222946204600F0FFF800215A
:100EC000A001234A8018001FAA008150002E0DD0D7
:100ED000A0011F49FC31401800680121A9400843C6
:100EE000A1011B4AFC32891808600CE0A0011849D6
:100EF000FC31401800680121A9408843A101144A2F
:100F0000FC3289180860A0011149FC314018006AC0
:100F10000121A9408843A1010D4AFC3289180862C9
:100F2000A00111464018406A0121A9408843A1014F
:100F300089184862A00111464018C16A0120A840E2
:100F40008143A0018018C162002070BD00200040D4
:100F5000040C0240F0B504460D4616461F4655489F
:100F6000006A01210907884340185249086200229B
:100F70002946204600F0A2F80021A0014E4A801820
:100F8000001FAA008150002E0DD0A0014A49FC315B
:100F9000401800680121A9400843A101464AFC32DB
:100FA000891808600CE0A0014349FC314018006832
:100FB0000121A9408843A1013F4AFC3289180860F9
:100FC000079800280DD0A0013B49FC314018C069AA
:100FD0000121A9400843A101374AFC328918C861A0
:100FE0000CE0A0013449FC314018C0690121A9403E
:100FF0008843A101304AFC328918C861002F0DD006
:10100000A0012D49FC314018006A0121A940084384
:10101000A101294AFC32891808620CE0A001264986
:10102000FC314018006A0121A9408843A101224AED
:10103000FC3289180862059800280DD0A0011E49CD
:10104000FC314018406A0121A9400843A1011A4A15
:10105000FC32891848620CE0A0011749FC314018A5
:10106000406A0121A9408843A101134AFC32891832
:101070004862069800280DD0A0010F49FC314018A5
:10108000C06A0121A9400843A1010B4AFC3289181A
:10109000C8620CE0A0010849FC314018C06A012177
:1010A000A9408843A101044AFC328918C862002083
:1010B000F0BD000000200040040C024030B50346A3
:1010C000002A0BD098010C4C0019C06801248C40F8
:1010D00020439C01084D6419E0600AE09801064C29
:1010E0000019C06801248C40A0439C01024D641982
:1010F000E060002030BD0000000D024030B5002A45
:1011000001D0012300E000231A46002A0BD08301FE
:101110000B4C1B199B6801248C4023438401084D10
:101120006419A3600AE08301054C1B199C68012324
:101130008B409C438301024D5B199C6030BD0000D5
:10114000000D024008B50020009000BF0098002864
:10115000FCD008BD10B50020FFF71EFE10BD10B575
:101160000120FFF719FE10BD10B50220FFF714FE95
:1011700010BD10B50320FFF70FFE10BD10B5002005
:10118000C046C04610BD10B50120C046C04610BDC7
:1011900010B5002000F038FB10BD10B5002000F0A5
:1011A00093FF10BD10B50020C046C04610BD10B55D
:1011B000002001F043F810BD10B5012001F03EF809
:1011C00010BD10B5022001F039F810BD10B5002097
:1011D00000F012FB10BD10B50420C046C04610BD83
:1011E00010B50520C046C04610BD10B50620C0464B
:1011F000C04610BD10B50020C046C04610BD10B599
:10120000002001F083F810BD10B50020C046C04694
:1012100010BD10B50020C046C04610BD10B500205E
:10122000C046C04610BD10B50120C046C04610BD26
:1012300010B50020C046C04610BD10B50020FFF715
:101240004DFD10BD10B50020C046C04610BD0EB506
:1012500000200090019001230246052102901846CB
:10126000FFF778FE012205211046FFF747FF002017
:101270000122019003460421009202901046FFF7DC
:1012800069FE04210120FFF75DFD042211460120C3
:10129000FFF76AFD012203211046FFF727FD00201A
:1012A0000122019003460321009202900846FFF7B5
:1012B00051FE03210846FFF745FD0422032108469D
:1012C000FFF752FD00200122019003460221009207
:1012D00002900320FFF73EFE02210320FFF732FDBC
:1012E000042202210320FFF73FFD012203210846CB
:1012F000FFF7FCFC0EBD10B5002203211046FFF7DE
:10130000CDFD002203211046FFF7F8FE10BD0000BE
:101310001FB50121009100240920FFF7D3FA002115
:10132000684601714171032181710021C17101720F
:10133000012141720B48039001A800F0FFFA002838
:1013400001D00120009000F0E3FA00F0EBFA012256
:1013500003211120FFF7CAFC204600F0C1FA00F07B
:101360003BFB1FBDCD18000000B58FB014210AA8AB
:1013700001F0E1F80C2107A801F0DDF8032106A82F
:1013800001F0D9F801210220FFF79CFA002000901B
:10139000019001230246052102900220FFF7DAFDA9
:1013A00000200090019001230246062102900220B5
:1013B000FFF7D0FD00BF2848C06820218843264998
:1013C000C86026484069C008C000401D23494861E4
:1013D000214800682021884320301F49086000BF51
:1013E00000BF0846C068402188431B49C8601B48AD
:1013F0008069C008C000401D18498861164800680F
:10140000402188431449086000BF032168464175A4
:101410000721017505A80A900121684601744174ED
:1014200004A80B900E480990002007900D480890E2
:1014300007A80D9008A8017600216846017606A845
:101440000C90012000F06EF80AA800F093F801203B
:1014500000F056F80FB000BD800D0240800C024035
:10146000DD1B0000410D000010B5082000F0CAFA95
:101470000321082000F048FB082001218140024A96
:10148000116000BF10BD000080E100E0004870471F
:101490002C01002010B5082000F0B4FA0321082028
:1014A00000F032FB082001218140024A116000BF98
:1014B00010BD000000E100E00146002904D002292F
:1014C00009D0032915D10DE00C484069042290434E
:1014D0000A4A50610FE00948406940084000074A45
:1014E000506108E00548406902229043034A506178
:1014F00001E00420704700BF0020FBE7000200402D
:1015000010B501460120064A526810239A430B0188
:10151000102423401A43024B5A60002010BD0000E3
:10152000000200400146002904D001290AD0022906
:1015300019D10FE00E48406802229043801C0C4AEB
:10154000506012E00A48406840084000401C084AC9
:1015500050600AE006484068FF220132904380183C
:10156000034A506001E00420704700BF0020FBE701
:101570000002004070B50446FFF788FF0546002CC6
:1015800001D1042070BD2068002807D02168487868
:1015900000F09CF82168087800F0BAF8606800F064
:1015A000CBF8A068002802D0A06800F0FFF8E0683F
:1015B000002808D0E06840686860E0688068A8603B
:1015C000E06800682860207C012802D1FFF762FFF4
:1015D00001E0FFF749FF0020D4E7000010B53448D0
:1015E0000068C1B23348007814225043324A801850
:1015F000324A127881540220FFF75EFF2F480078AC
:1016000000281CD12B480078142148432A49085C43
:10161000AA2808D101202A4908702A4800F060F958
:1016200000F0DAF90BE0002024490870214909781C
:1016300014225143204A88180F21FEF798FD2048B4
:101640000078002832D01D48007802281CDB194899
:10165000007814214843184940188078801C1749A5
:101660000978884210D10020144908701148007888
:10167000401C10490870084600780A2801DB002049
:1016800008700120104908700F480078002808D021
:1016900000200B49087000F0ABF900200A490870DF
:1016A00004E006480078401C0449087010BD0000A2
:1016B000000200404500002064000020430000209C
:1016C000470000207FFB0000440000200146002965
:1016D00006D0012905D0022904D0032910D102E047
:1016E00000BF00BF00BF094840680322D2029043F8
:1016F000CA020323DB021A401043044A506001E08F
:101700000420704700BF0020FBE7000000020040FB
:1017100010B501460120074A526807235B039A432C
:101720004B030724640323401A43024B5A600020F2
:1017300010BD00000002004010B5014601221A4809
:101740004068930298430B789B029402234018430D
:10175000154B5860184640684005C00F002815D04A
:101760004878012802D003280DD100E000BF0E48C0
:101770004068C02398434B789B01C0242340184302
:10178000094B586001E0042010BD0AE0064840689B
:10179000C02398434B789B01C02423401843024B3D
:1017A000586000221046EFE70002004010B50146E5
:1017B00001200A4A526820239A430B785B012024B7
:1017C00023401A43054B5A600A78012A03D14A780C
:1017D0009A608A78DA60002010BD000000020040A4
:1017E00001460022002900D1704701E0521C49083F
:1017F0000129FBD81046F7E710B5044601480068F8
:10180000804710BD2000002070B50546FFF73EFE62
:101810000446154800694007C00F002807D0002083
:10182000FFF74AFE6068002801D0606880470E48D4
:101830000069C007C00F002807D00220FFF73CFE58
:10184000A068002801D0A068804707480069800789
:10185000C00F002807D00320FFF72EFE20680028C5
:1018600001D02068804770BD000200400146012081
:101870000A78002A04D0144A126910231A4303E09C
:10188000114A126910239A430F4B1A614A78002AB1
:1018900004D01A46126904231A4303E00A4A126963
:1018A00004239A43084B1A618A78002A04D01A4606
:1018B000126902231A4303E0034A126902239A437E
:1018C000014B1A610020704700ED00E000B500F008
:1018D0001FF801200149087000BD00001D00002014
:1018E00010B5014601200022084BDB6A1B06DA0F07
:1018F000002A09D0054B5B6A1B0C1B048CB22343E6
:10190000024C6362002000E0012010BD400C00404A
:1019100001200349496B8143014A5163002070470C
:10192000400C004001200449C96A82029143891891
:10193000014AD16200207047400C004010B50146BA
:101940000120234AD26A43029A430B785B02440285
:1019500023401A431E4BDA621A46D26A03029A43A4
:101960004B781B02040223401A43194BDA621A46D1
:10197000D26A30239A438B781B01302423401A43C8
:10198000134BDA621A46D26A08239A43CB78DB00FB
:10199000082423401A430E4BDA621A46D26A042303
:1019A0009A430B799B00042423401A43084BDA62C4
:1019B0001A46D26A02239A434B795B0002242340E1
:1019C0001A43034BDA62034B8A681A60002010BD89
:1019D000400C00402000002001200449C96A8143D6
:1019E000491C024AD162002070470000400C0040B0
:1019F00001200349C96A8143014AD162002070472E
:101A0000400C0040C206D20E01219140014A1160F3
:101A10007047000080E200E010B5002819DA1A4A89
:101A200003071B0F083B9B089B00D2588307DC0E63
:101A3000FF23A3409A438B071B0E8407E40EA340A9
:101A40001A43114B0407240F083CA408A4001A51A0
:101A500018E00E4A03231B02D21883089B00D258B9
:101A60008307DC0EFF23A3409A438B071B0E8407DA
:101A7000E40EA3401A43054B032424021B198408D7
:101A8000A4001A5110BD00001CED00E000E100E0D0
:101A900010B5002819DA1A4A03071B0F083B9B08E8
:101AA0009B00D2588307DC0EFF23A3409A438B0789
:101AB0001B0E8407E40EA3401A43114B0407240FA6
:101AC000083CA408A4001A5118E00E4A03231B0284
:101AD000D21883089B00D2588307DC0EFF23A34053
:101AE0009A438B071B0E8407E40EA3401A43054B51
:101AF000032424021B198408A4001A5110BD0000FD
:101B00001CED00E000E100E010B5002819DA1A4AE7
:101B100003071B0F083B9B089B00D2588307DC0E72
:101B2000FF23A3409A438B071B0E8407E40EA340B8
:101B30001A43114B0407240F083CA408A4001A51AF
:101B400018E00E4A03231B02D21883089B00D258C8
:101B50008307DC0EFF23A3409A438B071B0E8407E9
:101B6000E40EA3401A43054B032424021B198408E6
:101B7000A4001A5110BD00001CED00E000E100E0DF
:101B800070B504460D4600201249087000231EE07F
:101B90007D26F60000201049C8600EE0802000F08D
:101BA0006FFA012809D10C488068802188430A49CE
:101BB00088600846C068E05403E03046761E00287E
:101BC000ECD100BF002003490870581CC3B2AB42DF
:101BD000DEDB70BD140000200008004010B5FFF7E8
:101BE000FDFC10BD0EB501210620FEF76BFE00BF07
:101BF0003B48C068042188433949C8603948806837
:101C0000C008C000801D374988603548006804213D
:101C100088433349086000BF00BF31488030C06846
:101C2000082188432E498031C8602D488038C0681B
:101C3000C008C000401D2A498039C860284880304B
:101C4000006808218843083025498031086000BFBA
:101C500000BF0846C0681021884321498031C86010
:101C60001F4880380069C008C000401D1C498039E9
:101C700008611B4880300068102188431849803172
:101C800008601948406801214903884316494860A3
:101C900000BF00BF1248C068022188431049C860D5
:101CA00010484068C008C000801D0E4948600C48BC
:101CB0000068022188430A49086000BF012000F043
:101CC00067FA00216846C1708170017101210170BD
:101CD0000020029000216846417000F0FDF90EBD21
:101CE000000D0240000C0240000F024010B5012020
:101CF00000F04EFA002205210120FFF7FFF906202F
:101D000000F02AFC012205211046FFF7F7F910BD6B
:101D1000F8B504460D4616462571204600F064F9D4
:101D200084214D2000F0AFF8FF21242000F0ABF813
:101D30000121402000F0A7F83F21112000F0A3F876
:101D400000F0C6F82946222000F09DF8012218492B
:101D50000F2000F084F81648007800900D200099BC
:101D600000F091F88D21012000F08DF800212E2047
:101D700001551CE001220F49182000F070F80D48B1
:101D8000077804203840042803D103206071012023
:101D9000F8BD701E061E06D100F037F9204600F08F
:101DA00023F90020F4E7012000F0D6FB00BFE1E7B3
:101DB000530000205400002070B5044615480078F8
:101DC000002823D02821A01DFEF7D1F901221249B5
:101DD000102000F044F81048067831460D2000F03D
:101DE00052F8A078002801D1257906E001220B499C
:101DF000132000F034F8094805782A46A11D002078
:101E000000F02DF82E20055500F062F82E20005D20
:101E100070BD00004E00002055000020560000203C
:101E2000F0B58BB006460F46154680203043694614
:101E30000871002404E0395D01AA601C1154641C7F
:101E4000AC42F8DD002000F0A3F9681CC1B201A883
:101E500000F0ACFA012000F09BF90BB0F0BDF8B532
:101E600004460D4616460094002000F091F9012129
:101E7000684600F09BFAF1B22846FFF781FE012088
:101E800000F086F9F8BD38B505460C468020284399
:101E9000694608704C70002000F07AF9022168460B
:101EA00000F084FA012000F073F938BDF8B504465B
:101EB0000D4616461F46FFF719FF25706670A7707E
:101EC0000698E07007982071204600F08DF8F8BD64
:101ED00010B5FF211220FFF7D6FF10BDFFB581B06E
:101EE00006460F461C46304600F0B8F80F2000F0BA
:101EF00033FB00F084F8304600F0B9F80F2000F012
:101F00002BFB78003818334A811803220620FFF78C
:101F100087FF314A0398115C0920FFF7B4FF0B21BA
:101F20000846FFF7B0FF23210C20FFF7ACFF2B483A
:101F3000005D062824D12A4A0A98105C0001C01CC2
:101F4000C1B21D20FFF79FFF2448005D0001C01DA6
:101F5000C1B21E20FFF797FF012222493120FFF76F
:101F60007EFF20480578F8200540052005432946D6
:101F70003120FFF788FF0C213720FFF784FF10E0A6
:101F8000174A0A98105C0001801CC1B21D20FFF79F
:101F90007AFF1248005D0001C01DC1B21E20FFF78C
:101FA00072FFFF211F20FFF76EFF00212020FFF7A7
:101FB0006AFF0C212120FFF766FF01214120FFF776
:101FC00062FF00212E208155304600F050F805B008
:101FD000F0BD0000E0260000E3260000E726000038
:101FE000EE2600005200002038B50446E07800904C
:101FF000A378627821782046FFF770FF38BD10B5CE
:1020000088210120FFF73FFF10BD10B5012000F02F
:10201000BFF8002205210120FFF770F8012000F031
:102020009BFA012205211046FFF768F8642000F0B2
:1020300093FA10BD70B504460E4615462E20005D7D
:10204000A84201D02E20055D2A46A11D3046FEF78C
:1020500075F800212E200155284670BD10B50446A4
:1020600000210120FFF70FFF0020607110BD10B5A7
:10207000044609210120FFF706FF0120607110BD11
:1020800001460020102914D020290DD0402906D067
:10209000802913D10B4A92681206D00F0FE0094A2B
:1020A00092685206D00F0AE0064A92689206D00F54
:1020B00005E0044A9268D206D00F00E000BF00BFDE
:1020C000704700000008004010B504460148006851
:1020D000804710BD1800002010B5044600202A4992
:1020E0000860084600681021884321780901102201
:1020F00011400843244908600846006808218843C5
:10210000A178C9000822114008431F490860084609
:10211000006804218843E1788900042211400843C3
:10212000194908606078032806DD084600688021A8
:102130008843803014490860134800686178890733
:10214000890F08431049086000208860084600682D
:102150004021884340300C4908602079012805D18E
:10216000012203210A20FEF7C1FD04E00022032121
:102170000A20FEF7BBFDA068002802D00349A06832
:102180000860002010BD000000080040180000207A
:102190000149486070470000000800400020704777
:1021A00010B5FEF757FA0149086010BD0000002085
:1021B0001CB50620FEF7A4FB01210020FEF7A2F9C2
:1021C000FFF7EEFF0821684600F0B5F901206946E7
:1021D0004870034801906846FEF71EFD1CBD0000D4
:1021E000FFFFFF0000B587B0012101911248059063
:1021F0000820FEF767FB0021684601724172072143
:1022000081720021C17201730121417302A9012071
:10221000FEF758F8002801D0012001900120FDF7B9
:10222000DFFF0120FEF702F8012203210F20FEF755
:102230005DFD07B000BD0000A901000010B5044617
:10224000002C04D0012C06D0022C0CD107E007484A
:102250000068804708E006480068804704E00548B9
:102260000068804700E000BF00BF10BD30000020C4
:1022700034000020380000201CB50821684600F01A
:102280005AF90B21684601700121417005480190FF
:102290000F20FEF717FB684600F04EF800F070F8CC
:1022A0001CBD0000A922000010B5164909781422AF
:1022B0005143154A88180A21FDF759FF0821114892
:1022C000007814225043104A801881700E210D4866
:1022D0000078142250430C4A8018C1701621094816
:1022E000007814225043084A80184170054800784D
:1022F000401C04490870084600780A2801DB0020C9
:10230000087010BD450000206400002010B5044690
:10231000074840680006C00F002808D000F030F8D9
:1023200004480068002802D002480068804710BDB9
:10233000800C00400800002070B50446012520787C
:1023400000F028F80C49606808600C4840682021BB
:1023500088436178490120221140084307494860B9
:102360006078002804D0012203211620FEF7BEFC6D
:102370000025284670BD000008000020800C0040A9
:1023800001201E21024A1160E121116000207047E6
:10239000800C004004494968090909010207120F2D
:1023A0001143014A51607047800C004070B50446EB
:1023B0000D4600201149087000231CE07D26F60020
:1023C000E05C0F49C8600BE08020FFF759FE012850
:1023D00006D10B488068802188430949886003E062
:1023E0003046761E0028EFD100BF0548C068054979
:1023F0000870581CC3B2AB42E0DB70BD1400002073
:10240000000800401500002070B50446D007C00F3A
:10241000002818D0002B0BD0A001374D4019006BBD
:1024200001258D402843A501334EAD1928630AE0EC
:10243000A001314D4019006B01258D40A843A50135
:102440002D4EAD19286302201040002818D0002B13
:102450000BD0A001284D4019406B01258D40284329
:10246000A501254EAD1968630AE0A001224D40196F
:10247000406B01258D40A843A5011F4EAD1968632F
:1024800004201040002818D0002B0BD0A0011A4DBA
:102490004019806B01258D402843A501164EAD19CA
:1024A000A8630AE0A001144D4019806B01258D40FE
:1024B000A843A501104EAD19A863082010400028BC
:1024C00018D0002B0BD0A0010B4D4019C06B01257B
:1024D0008D402843A501084EAD19E8630AE0A0012C
:1024E000054D4019C06B01258D40A843A501024E42
:1024F000AD19E863002070BD000D024030B4744691
:10250000641E2578641CAB4204D3635D5B00E31852
:1025100030BC18471D46F8E702E008C8121F08C182
:10252000002AFAD170477047002001E001C1121F54
:10253000002AFBD1704710B50A460146002900D198
:1025400010BD02E000230B70491C1346521E002BE5
:10255000F8D100BFF4E7000070B5054610E0002098
:102560000A4988617D21C90009480068FDF7D0FD4E
:10257000012109060C1A00BF04488069A042FBD85B
:1025800028466D1E0028EAD170BD000000E000E082
:10259000000000200EB5032102A8FFF7CCFFFDF7D5
:1025A00089FFFEF7A8FEFFF767FEFEF7B1FEFFF713
:1025B00019FEFEF7D9FEFFF715FBFEF748FE1420C3
:1025C0000721022300220091019011461948FFF7CC
:1025D0006DFC7D22D20026211648FFF799FB0121D0
:1025E0001C20FEF76FF901210220FDF78BFF01206F
:1025F000FEF7D6F901210020FEF780F826210E48CB
:10260000FDF7B5FD112226210B48FDF7A9FD00F0CD
:1026100019F80EE00948007800280AD008488068B8
:102620000821484006498860002004490870FFF7E7
:10263000B5FDEFE7DC050020420100204E00002040
:10264000000D024008B5002204210320FEF756FDCC
:10265000002204210320FEF721FC00220521032093
:10266000FEF74CFD002205210320FEF717FC002297
:1026700006210320FEF742FD002206210320FEF77B
:102680000DFC002201210320FEF738FD002201216C
:102690000320FEF703FC002207210220FEF72EFD97
:1026A000002207210220FEF7F9FB00221146104606
:1026B000FEF724FD002211461046FEF7EFFB032132
:1026C0006846FFF738FF002168460170012141701C
:1026D00000218170FFF7CAF808BD000048018001A1
:1026E0006C8000FFFCF9F6060708090A0B0C0001D4
:1026F000020304050607080918270000000000204F
:1027000064000000182500007C2700006400002001
:10271000AC0700002825000000093D000000000073
:1027200000000000000000000000000000000000A9
:102730000000000000000000000000000000000099
:102740000000000000000000000000000000000089
:102750000000000000000000000000000000000079
:102760000000000000000000000000000000000069
:0C2770000000000000000000000000005D
:04000005000000C136
:00000001FF
